{
  "_format": "hh-sol-artifact-1",
  "contractName": "WideSignatureLogger",
  "sourceName": "contracts/WideSignatureLogger.sol",
  "abi": [
    {
      "inputs": [],
      "stateMutability": "nonpayable",
      "type": "constructor"
    },
    {
      "anonymous": false,
      "inputs": [
        {
          "indexed": true,
          "internalType": "bytes32",
          "name": "payloadKey",
          "type": "bytes32"
        },
        {
          "indexed": false,
          "internalType": "uint256",
          "name": "timestamp",
          "type": "uint256"
        }
      ],
      "name": "PayloadLogged",
      "type": "event"
    },
    {
      "anonymous": false,
      "inputs": [
        {
          "indexed": true,
          "internalType": "bytes32",
          "name": "presentationKey",
          "type": "bytes32"
        },
        {
          "indexed": false,
          "internalType": "uint256",
          "name": "timestamp",
          "type": "uint256"
        }
      ],
      "name": "PresentationLogged",
      "type": "event"
    },
    {
      "inputs": [
        {
          "internalType": "bytes32",
          "name": "payloadKey",
          "type": "bytes32"
        }
      ],
      "name": "getPayloadInfo",
      "outputs": [
        {
          "components": [
            {
              "internalType": "bytes",
              "name": "signature",
              "type": "bytes"
            },
            {
              "internalType": "uint256",
              "name": "timestamp",
              "type": "uint256"
            }
          ],
          "internalType": "struct WideSignatureLogger.PayloadInfo",
          "name": "",
          "type": "tuple"
        }
      ],
      "stateMutability": "view",
      "type": "function"
    },
    {
      "inputs": [
        {
          "internalType": "bytes32",
          "name": "presentationKey",
          "type": "bytes32"
        }
      ],
      "name": "getPresentationHistory",
      "outputs": [
        {
          "components": [
            {
              "internalType": "string",
              "name": "jsonString",
              "type": "string"
            },
            {
              "internalType": "uint256",
              "name": "timestamp",
              "type": "uint256"
            }
          ],
          "internalType": "struct WideSignatureLogger.PresentationInfo[]",
          "name": "",
          "type": "tuple[]"
        }
      ],
      "stateMutability": "view",
      "type": "function"
    },
    {
      "inputs": [
        {
          "components": [
            {
              "internalType": "bytes32",
              "name": "payloadKey",
              "type": "bytes32"
            },
            {
              "internalType": "bytes",
              "name": "signature",
              "type": "bytes"
            }
          ],
          "internalType": "struct WideSignatureLogger.PayloadSignaturePair",
          "name": "payloadPair",
          "type": "tuple"
        }
      ],
      "name": "logPayload",
      "outputs": [],
      "stateMutability": "nonpayable",
      "type": "function"
    },
    {
      "inputs": [
        {
          "components": [
            {
              "internalType": "bytes32",
              "name": "payloadKey",
              "type": "bytes32"
            },
            {
              "internalType": "bytes",
              "name": "signature",
              "type": "bytes"
            }
          ],
          "internalType": "struct WideSignatureLogger.PayloadSignaturePair[]",
          "name": "payloadPairs",
          "type": "tuple[]"
        }
      ],
      "name": "logPayloadBatch",
      "outputs": [],
      "stateMutability": "nonpayable",
      "type": "function"
    },
    {
      "inputs": [
        {
          "internalType": "bytes32",
          "name": "presentationKey",
          "type": "bytes32"
        },
        {
          "internalType": "string",
          "name": "jsonString",
          "type": "string"
        }
      ],
      "name": "logPresentation",
      "outputs": [],
      "stateMutability": "nonpayable",
      "type": "function"
    },
    {
      "inputs": [],
      "name": "owner",
      "outputs": [
        {
          "internalType": "address",
          "name": "",
          "type": "address"
        }
      ],
      "stateMutability": "view",
      "type": "function"
    },
    {
      "inputs": [
        {
          "internalType": "bytes32",
          "name": "",
          "type": "bytes32"
        }
      ],
      "name": "payloads",
      "outputs": [
        {
          "internalType": "bytes",
          "name": "signature",
          "type": "bytes"
        },
        {
          "internalType": "uint256",
          "name": "timestamp",
          "type": "uint256"
        }
      ],
      "stateMutability": "view",
      "type": "function"
    },
    {
      "inputs": [
        {
          "internalType": "bytes32",
          "name": "",
          "type": "bytes32"
        },
        {
          "internalType": "uint256",
          "name": "",
          "type": "uint256"
        }
      ],
      "name": "presentations",
      "outputs": [
        {
          "internalType": "string",
          "name": "jsonString",
          "type": "string"
        },
        {
          "internalType": "uint256",
          "name": "timestamp",
          "type": "uint256"
        }
      ],
      "stateMutability": "view",
      "type": "function"
    }
  ],
  "bytecode": "0x608060405234801561001057600080fd5b50336000806101000a81548173ffffffffffffffffffffffffffffffffffffffff021916908373ffffffffffffffffffffffffffffffffffffffff1602179055506118b9806100606000396000f3fe608060405234801561001057600080fd5b50600436106100885760003560e01c80638da5cb5b1161005b5780638da5cb5b1461012657806397d25e4e146101445780639c56896614610174578063f15d5ba1146101a557610088565b80631fb6a83c1461008d57806326b67f3d146100bd57806358722672146100d95780636cad76571461010a575b600080fd5b6100a760048036038101906100a291906109b7565b6101c1565b6040516100b49190610b8c565b60405180910390f35b6100d760048036038101906100d29190610d59565b6102cf565b005b6100f360048036038101906100ee91906109b7565b610495565b604051610101929190610e06565b60405180910390f35b610124600480360381019061011f9190610f1c565b610541565b005b61012e610615565b60405161013b9190610fa6565b60405180910390f35b61015e600480360381019061015991906109b7565b610639565b60405161016b9190611048565b60405180910390f35b61018e60048036038101906101899190611096565b610702565b60405161019c929190611120565b60405180910390f35b6101bf60048036038101906101ba91906111f1565b6107cb565b005b606060026000838152602001908152602001600020805480602002602001604051908101604052809291908181526020016000905b828210156102c457838290600052602060002090600202016040518060400160405290816000820180546102299061127c565b80601f01602080910402602001604051908101604052809291908181526020018280546102559061127c565b80156102a25780601f10610277576101008083540402835291602001916102a2565b820191906000526020600020905b81548152906001019060200180831161028557829003601f168201915b50505050508152602001600182015481525050815260200190600101906101f6565b505050509050919050565b60008054906101000a900473ffffffffffffffffffffffffffffffffffffffff1673ffffffffffffffffffffffffffffffffffffffff163373ffffffffffffffffffffffffffffffffffffffff161461035d576040517f08c379a00000000000000000000000000000000000000000000000000000000081526004016103549061131f565b60405180910390fd5b6000816000015190506000826020015190506000801b82036103b4576040517f08c379a00000000000000000000000000000000000000000000000000000000081526004016103ab9061138b565b60405180910390fd5b600060016000848152602001908152602001600020600101541461040d576040517f08c379a0000000000000000000000000000000000000000000000000000000008152600401610404906113f7565b60405180910390fd5b60405180604001604052808281526020014281525060016000848152602001908152602001600020600082015181600001908161044a91906115c3565b5060208201518160010155905050817fc963027d0142d2c1a3623aaa42cc320eacb7b94a4da55dfdeddf12e8a8725094426040516104889190611695565b60405180910390a2505050565b60016020528060005260406000206000915090508060000180546104b89061127c565b80601f01602080910402602001604051908101604052809291908181526020018280546104e49061127c565b80156105315780601f1061050657610100808354040283529160200191610531565b820191906000526020600020905b81548152906001019060200180831161051457829003601f168201915b5050505050908060010154905082565b60008054906101000a900473ffffffffffffffffffffffffffffffffffffffff1673ffffffffffffffffffffffffffffffffffffffff163373ffffffffffffffffffffffffffffffffffffffff16146105cf576040517f08c379a00000000000000000000000000000000000000000000000000000000081526004016105c69061131f565b60405180910390fd5b60005b8151811015610611576105fe8282815181106105f1576105f06116b0565b5b60200260200101516102cf565b80806106099061170e565b9150506105d2565b5050565b60008054906101000a900473ffffffffffffffffffffffffffffffffffffffff1681565b610641610953565b6001600083815260200190815260200160002060405180604001604052908160008201805461066f9061127c565b80601f016020809104026020016040519081016040528092919081815260200182805461069b9061127c565b80156106e85780601f106106bd576101008083540402835291602001916106e8565b820191906000526020600020905b8154815290600101906020018083116106cb57829003601f168201915b505050505081526020016001820154815250509050919050565b6002602052816000526040600020818154811061071e57600080fd5b9060005260206000209060020201600091509150508060000180546107429061127c565b80601f016020809104026020016040519081016040528092919081815260200182805461076e9061127c565b80156107bb5780601f10610790576101008083540402835291602001916107bb565b820191906000526020600020905b81548152906001019060200180831161079e57829003601f168201915b5050505050908060010154905082565b60008054906101000a900473ffffffffffffffffffffffffffffffffffffffff1673ffffffffffffffffffffffffffffffffffffffff163373ffffffffffffffffffffffffffffffffffffffff1614610859576040517f08c379a00000000000000000000000000000000000000000000000000000000081526004016108509061131f565b60405180910390fd5b6000801b820361089e576040517f08c379a00000000000000000000000000000000000000000000000000000000081526004016108959061138b565b60405180910390fd5b6000604051806040016040528083815260200142815250905060026000848152602001908152602001600020819080600181540180825580915050600190039060005260206000209060020201600090919091909150600082015181600001908161090991906117b1565b50602082015181600101555050827fefaf7a33ec95dcfc5d75e9c2d62a9b4587c77564f7f2cf109c4020e217b15ee7426040516109469190611695565b60405180910390a2505050565b604051806040016040528060608152602001600081525090565b6000604051905090565b600080fd5b600080fd5b6000819050919050565b61099481610981565b811461099f57600080fd5b50565b6000813590506109b18161098b565b92915050565b6000602082840312156109cd576109cc610977565b5b60006109db848285016109a2565b91505092915050565b600081519050919050565b600082825260208201905092915050565b6000819050602082019050919050565b600081519050919050565b600082825260208201905092915050565b60005b83811015610a4a578082015181840152602081019050610a2f565b60008484015250505050565b6000601f19601f8301169050919050565b6000610a7282610a10565b610a7c8185610a1b565b9350610a8c818560208601610a2c565b610a9581610a56565b840191505092915050565b6000819050919050565b610ab381610aa0565b82525050565b60006040830160008301518482036000860152610ad68282610a67565b9150506020830151610aeb6020860182610aaa565b508091505092915050565b6000610b028383610ab9565b905092915050565b6000602082019050919050565b6000610b22826109e4565b610b2c81856109ef565b935083602082028501610b3e85610a00565b8060005b85811015610b7a5784840389528151610b5b8582610af6565b9450610b6683610b0a565b925060208a01995050600181019050610b42565b50829750879550505050505092915050565b60006020820190508181036000830152610ba68184610b17565b905092915050565b600080fd5b7f4e487b7100000000000000000000000000000000000000000000000000000000600052604160045260246000fd5b610beb82610a56565b810181811067ffffffffffffffff82111715610c0a57610c09610bb3565b5b80604052505050565b6000610c1d61096d565b9050610c298282610be2565b919050565b600080fd5b600080fd5b600080fd5b600067ffffffffffffffff821115610c5857610c57610bb3565b5b610c6182610a56565b9050602081019050919050565b82818337600083830152505050565b6000610c90610c8b84610c3d565b610c13565b905082815260208101848484011115610cac57610cab610c38565b5b610cb7848285610c6e565b509392505050565b600082601f830112610cd457610cd3610c33565b5b8135610ce4848260208601610c7d565b91505092915050565b600060408284031215610d0357610d02610bae565b5b610d0d6040610c13565b90506000610d1d848285016109a2565b600083015250602082013567ffffffffffffffff811115610d4157610d40610c2e565b5b610d4d84828501610cbf565b60208301525092915050565b600060208284031215610d6f57610d6e610977565b5b600082013567ffffffffffffffff811115610d8d57610d8c61097c565b5b610d9984828501610ced565b91505092915050565b600081519050919050565b600082825260208201905092915050565b6000610dc982610da2565b610dd38185610dad565b9350610de3818560208601610a2c565b610dec81610a56565b840191505092915050565b610e0081610aa0565b82525050565b60006040820190508181036000830152610e208185610dbe565b9050610e2f6020830184610df7565b9392505050565b600067ffffffffffffffff821115610e5157610e50610bb3565b5b602082029050602081019050919050565b600080fd5b6000610e7a610e7584610e36565b610c13565b90508083825260208201905060208402830185811115610e9d57610e9c610e62565b5b835b81811015610ee457803567ffffffffffffffff811115610ec257610ec1610c33565b5b808601610ecf8982610ced565b85526020850194505050602081019050610e9f565b5050509392505050565b600082601f830112610f0357610f02610c33565b5b8135610f13848260208601610e67565b91505092915050565b600060208284031215610f3257610f31610977565b5b600082013567ffffffffffffffff811115610f5057610f4f61097c565b5b610f5c84828501610eee565b91505092915050565b600073ffffffffffffffffffffffffffffffffffffffff82169050919050565b6000610f9082610f65565b9050919050565b610fa081610f85565b82525050565b6000602082019050610fbb6000830184610f97565b92915050565b600082825260208201905092915050565b6000610fdd82610da2565b610fe78185610fc1565b9350610ff7818560208601610a2c565b61100081610a56565b840191505092915050565b600060408301600083015184820360008601526110288282610fd2565b915050602083015161103d6020860182610aaa565b508091505092915050565b60006020820190508181036000830152611062818461100b565b905092915050565b61107381610aa0565b811461107e57600080fd5b50565b6000813590506110908161106a565b92915050565b600080604083850312156110ad576110ac610977565b5b60006110bb858286016109a2565b92505060206110cc85828601611081565b9150509250929050565b600082825260208201905092915050565b60006110f282610a10565b6110fc81856110d6565b935061110c818560208601610a2c565b61111581610a56565b840191505092915050565b6000604082019050818103600083015261113a81856110e7565b90506111496020830184610df7565b9392505050565b600067ffffffffffffffff82111561116b5761116a610bb3565b5b61117482610a56565b9050602081019050919050565b600061119461118f84611150565b610c13565b9050828152602081018484840111156111b0576111af610c38565b5b6111bb848285610c6e565b509392505050565b600082601f8301126111d8576111d7610c33565b5b81356111e8848260208601611181565b91505092915050565b6000806040838503121561120857611207610977565b5b6000611216858286016109a2565b925050602083013567ffffffffffffffff8111156112375761123661097c565b5b611243858286016111c3565b9150509250929050565b7f4e487b7100000000000000000000000000000000000000000000000000000000600052602260045260246000fd5b6000600282049050600182168061129457607f821691505b6020821081036112a7576112a661124d565b5b50919050565b7f4f6e6c792074686520636f6e7472616374206f776e65722063616e2063616c6c60008201527f2074686973000000000000000000000000000000000000000000000000000000602082015250565b60006113096025836110d6565b9150611314826112ad565b604082019050919050565b60006020820190508181036000830152611338816112fc565b9050919050565b7f496e76616c696420696e70757400000000000000000000000000000000000000600082015250565b6000611375600d836110d6565b91506113808261133f565b602082019050919050565b600060208201905081810360008301526113a481611368565b9050919050565b7f5061796c6f616420616c7265616479206c6f6767656400000000000000000000600082015250565b60006113e16016836110d6565b91506113ec826113ab565b602082019050919050565b60006020820190508181036000830152611410816113d4565b9050919050565b60008190508160005260206000209050919050565b60006020601f8301049050919050565b600082821b905092915050565b6000600883026114797fffffffffffffffffffffffffffffffffffffffffffffffffffffffffffffffff8261143c565b611483868361143c565b95508019841693508086168417925050509392505050565b6000819050919050565b60006114c06114bb6114b684610aa0565b61149b565b610aa0565b9050919050565b6000819050919050565b6114da836114a5565b6114ee6114e6826114c7565b848454611449565b825550505050565b600090565b6115036114f6565b61150e8184846114d1565b505050565b5b81811015611532576115276000826114fb565b600181019050611514565b5050565b601f8211156115775761154881611417565b6115518461142c565b81016020851015611560578190505b61157461156c8561142c565b830182611513565b50505b505050565b600082821c905092915050565b600061159a6000198460080261157c565b1980831691505092915050565b60006115b38383611589565b9150826002028217905092915050565b6115cc82610da2565b67ffffffffffffffff8111156115e5576115e4610bb3565b5b6115ef825461127c565b6115fa828285611536565b600060209050601f83116001811461162d576000841561161b578287015190505b61162585826115a7565b86555061168d565b601f19841661163b86611417565b60005b828110156116635784890151825560018201915060208501945060208101905061163e565b86831015611680578489015161167c601f891682611589565b8355505b6001600288020188555050505b505050505050565b60006020820190506116aa6000830184610df7565b92915050565b7f4e487b7100000000000000000000000000000000000000000000000000000000600052603260045260246000fd5b7f4e487b7100000000000000000000000000000000000000000000000000000000600052601160045260246000fd5b600061171982610aa0565b91507fffffffffffffffffffffffffffffffffffffffffffffffffffffffffffffffff820361174b5761174a6116df565b5b600182019050919050565b60008190508160005260206000209050919050565b601f8211156117ac5761177d81611756565b6117868461142c565b81016020851015611795578190505b6117a96117a18561142c565b830182611513565b50505b505050565b6117ba82610a10565b67ffffffffffffffff8111156117d3576117d2610bb3565b5b6117dd825461127c565b6117e882828561176b565b600060209050601f83116001811461181b5760008415611809578287015190505b61181385826115a7565b86555061187b565b601f19841661182986611756565b60005b828110156118515784890151825560018201915060208501945060208101905061182c565b8683101561186e578489015161186a601f891682611589565b8355505b6001600288020188555050505b50505050505056fea26469706673582212209db1451039438d39ac61d6af35eeeb53eca96b0e7cd83ba2f21b1bebe5af4d5b64736f6c63430008130033",
  "linkReferences": {},
  "deployedLinkReferences": {}
}