{
  "_format": "hh-sol-artifact-1",
  "contractName": "WideSignatureLogger",
  "sourceName": "contracts/WideSignatureLogger.sol",
  "abi": [
    {
      "inputs": [],
      "stateMutability": "nonpayable",
      "type": "constructor"
    },
    {
      "anonymous": false,
      "inputs": [
        {
          "indexed": true,
          "internalType": "bytes32",
          "name": "payloadKey",
          "type": "bytes32"
        },
        {
          "indexed": false,
          "internalType": "uint256",
          "name": "timestamp",
          "type": "uint256"
        }
      ],
      "name": "PayloadLogged",
      "type": "event"
    },
    {
      "inputs": [
        {
          "internalType": "bytes32",
          "name": "payloadKey",
          "type": "bytes32"
        }
      ],
      "name": "getPayloadInfo",
      "outputs": [
        {
          "components": [
            {
              "internalType": "bytes",
              "name": "signature",
              "type": "bytes"
            },
            {
              "internalType": "uint256",
              "name": "timestamp",
              "type": "uint256"
            }
          ],
          "internalType": "struct WideSignatureLogger.PayloadInfo",
          "name": "",
          "type": "tuple"
        }
      ],
      "stateMutability": "view",
      "type": "function"
    },
    {
      "inputs": [
        {
          "internalType": "bytes32",
          "name": "payloadKey",
          "type": "bytes32"
        },
        {
          "internalType": "bytes",
          "name": "signature",
          "type": "bytes"
        }
      ],
      "name": "logPayload",
      "outputs": [],
      "stateMutability": "nonpayable",
      "type": "function"
    },
    {
      "inputs": [],
      "name": "owner",
      "outputs": [
        {
          "internalType": "address",
          "name": "",
          "type": "address"
        }
      ],
      "stateMutability": "view",
      "type": "function"
    },
    {
      "inputs": [
        {
          "internalType": "bytes32",
          "name": "",
          "type": "bytes32"
        }
      ],
      "name": "payloads",
      "outputs": [
        {
          "internalType": "bytes",
          "name": "signature",
          "type": "bytes"
        },
        {
          "internalType": "uint256",
          "name": "timestamp",
          "type": "uint256"
        }
      ],
      "stateMutability": "view",
      "type": "function"
    }
  ],
  "bytecode": "0x608060405234801561001057600080fd5b50336000806101000a81548173ffffffffffffffffffffffffffffffffffffffff021916908373ffffffffffffffffffffffffffffffffffffffff160217905550610cf1806100606000396000f3fe608060405234801561001057600080fd5b506004361061004c5760003560e01c806322e030fe14610051578063587226721461006d5780638da5cb5b1461009e57806397d25e4e146100bc575b600080fd5b61006b600480360381019061006691906105e2565b6100ec565b005b6100876004803603810190610082919061063e565b61029f565b604051610095929190610703565b60405180910390f35b6100a661034b565b6040516100b39190610774565b60405180910390f35b6100d660048036038101906100d1919061063e565b61036f565b6040516100e39190610825565b60405180910390f35b60008054906101000a900473ffffffffffffffffffffffffffffffffffffffff1673ffffffffffffffffffffffffffffffffffffffff163373ffffffffffffffffffffffffffffffffffffffff161461017a576040517f08c379a0000000000000000000000000000000000000000000000000000000008152600401610171906108ca565b60405180910390fd5b6000801b82036101bf576040517f08c379a00000000000000000000000000000000000000000000000000000000081526004016101b690610936565b60405180910390fd5b6000600160008481526020019081526020016000206001015414610218576040517f08c379a000000000000000000000000000000000000000000000000000000000815260040161020f906109a2565b60405180910390fd5b6040518060400160405280828152602001428152506001600084815260200190815260200160002060008201518160000190816102559190610bce565b5060208201518160010155905050817fc963027d0142d2c1a3623aaa42cc320eacb7b94a4da55dfdeddf12e8a8725094426040516102939190610ca0565b60405180910390a25050565b60016020528060005260406000206000915090508060000180546102c2906109f1565b80601f01602080910402602001604051908101604052809291908181526020018280546102ee906109f1565b801561033b5780601f106103105761010080835404028352916020019161033b565b820191906000526020600020905b81548152906001019060200180831161031e57829003601f168201915b5050505050908060010154905082565b60008054906101000a900473ffffffffffffffffffffffffffffffffffffffff1681565b610377610438565b600160008381526020019081526020016000206040518060400160405290816000820180546103a5906109f1565b80601f01602080910402602001604051908101604052809291908181526020018280546103d1906109f1565b801561041e5780601f106103f35761010080835404028352916020019161041e565b820191906000526020600020905b81548152906001019060200180831161040157829003601f168201915b505050505081526020016001820154815250509050919050565b604051806040016040528060608152602001600081525090565b6000604051905090565b600080fd5b600080fd5b6000819050919050565b61047981610466565b811461048457600080fd5b50565b60008135905061049681610470565b92915050565b600080fd5b600080fd5b6000601f19601f8301169050919050565b7f4e487b7100000000000000000000000000000000000000000000000000000000600052604160045260246000fd5b6104ef826104a6565b810181811067ffffffffffffffff8211171561050e5761050d6104b7565b5b80604052505050565b6000610521610452565b905061052d82826104e6565b919050565b600067ffffffffffffffff82111561054d5761054c6104b7565b5b610556826104a6565b9050602081019050919050565b82818337600083830152505050565b600061058561058084610532565b610517565b9050828152602081018484840111156105a1576105a06104a1565b5b6105ac848285610563565b509392505050565b600082601f8301126105c9576105c861049c565b5b81356105d9848260208601610572565b91505092915050565b600080604083850312156105f9576105f861045c565b5b600061060785828601610487565b925050602083013567ffffffffffffffff81111561062857610627610461565b5b610634858286016105b4565b9150509250929050565b6000602082840312156106545761065361045c565b5b600061066284828501610487565b91505092915050565b600081519050919050565b600082825260208201905092915050565b60005b838110156106a557808201518184015260208101905061068a565b60008484015250505050565b60006106bc8261066b565b6106c68185610676565b93506106d6818560208601610687565b6106df816104a6565b840191505092915050565b6000819050919050565b6106fd816106ea565b82525050565b6000604082019050818103600083015261071d81856106b1565b905061072c60208301846106f4565b9392505050565b600073ffffffffffffffffffffffffffffffffffffffff82169050919050565b600061075e82610733565b9050919050565b61076e81610753565b82525050565b60006020820190506107896000830184610765565b92915050565b600082825260208201905092915050565b60006107ab8261066b565b6107b5818561078f565b93506107c5818560208601610687565b6107ce816104a6565b840191505092915050565b6107e2816106ea565b82525050565b6000604083016000830151848203600086015261080582826107a0565b915050602083015161081a60208601826107d9565b508091505092915050565b6000602082019050818103600083015261083f81846107e8565b905092915050565b600082825260208201905092915050565b7f4f6e6c792074686520636f6e7472616374206f776e65722063616e2063616c6c60008201527f2074686973000000000000000000000000000000000000000000000000000000602082015250565b60006108b4602583610847565b91506108bf82610858565b604082019050919050565b600060208201905081810360008301526108e3816108a7565b9050919050565b7f496e76616c696420696e70757400000000000000000000000000000000000000600082015250565b6000610920600d83610847565b915061092b826108ea565b602082019050919050565b6000602082019050818103600083015261094f81610913565b9050919050565b7f5061796c6f616420616c7265616479206c6f6767656400000000000000000000600082015250565b600061098c601683610847565b915061099782610956565b602082019050919050565b600060208201905081810360008301526109bb8161097f565b9050919050565b7f4e487b7100000000000000000000000000000000000000000000000000000000600052602260045260246000fd5b60006002820490506001821680610a0957607f821691505b602082108103610a1c57610a1b6109c2565b5b50919050565b60008190508160005260206000209050919050565b60006020601f8301049050919050565b600082821b905092915050565b600060088302610a847fffffffffffffffffffffffffffffffffffffffffffffffffffffffffffffffff82610a47565b610a8e8683610a47565b95508019841693508086168417925050509392505050565b6000819050919050565b6000610acb610ac6610ac1846106ea565b610aa6565b6106ea565b9050919050565b6000819050919050565b610ae583610ab0565b610af9610af182610ad2565b848454610a54565b825550505050565b600090565b610b0e610b01565b610b19818484610adc565b505050565b5b81811015610b3d57610b32600082610b06565b600181019050610b1f565b5050565b601f821115610b8257610b5381610a22565b610b5c84610a37565b81016020851015610b6b578190505b610b7f610b7785610a37565b830182610b1e565b50505b505050565b600082821c905092915050565b6000610ba560001984600802610b87565b1980831691505092915050565b6000610bbe8383610b94565b9150826002028217905092915050565b610bd78261066b565b67ffffffffffffffff811115610bf057610bef6104b7565b5b610bfa82546109f1565b610c05828285610b41565b600060209050601f831160018114610c385760008415610c26578287015190505b610c308582610bb2565b865550610c98565b601f198416610c4686610a22565b60005b82811015610c6e57848901518255600182019150602085019450602081019050610c49565b86831015610c8b5784890151610c87601f891682610b94565b8355505b6001600288020188555050505b505050505050565b6000602082019050610cb560008301846106f4565b9291505056fea2646970667358221220cc3982c4b0981dd304d64257fee18ab84cb9c5f166688c3312be8008984be1e464736f6c63430008130033",
  "linkReferences": {},
  "deployedLinkReferences": {}
}