{
  "_format": "hh-sol-artifact-1",
  "contractName": "WideSignatureLogger",
  "sourceName": "contracts/WideSignatureLogger.sol",
  "abi": [
    {
      "inputs": [],
      "stateMutability": "nonpayable",
      "type": "constructor"
    },
    {
      "anonymous": false,
      "inputs": [
        {
          "indexed": true,
          "internalType": "bytes32",
          "name": "payloadKey",
          "type": "bytes32"
        },
        {
          "indexed": false,
          "internalType": "uint256",
          "name": "timestamp",
          "type": "uint256"
        }
      ],
      "name": "PayloadLogged",
      "type": "event"
    },
    {
      "inputs": [
        {
          "internalType": "bytes32",
          "name": "payloadKey",
          "type": "bytes32"
        }
      ],
      "name": "getPayloadInfo",
      "outputs": [
        {
          "components": [
            {
              "internalType": "bytes",
              "name": "signature",
              "type": "bytes"
            },
            {
              "internalType": "uint256",
              "name": "timestamp",
              "type": "uint256"
            }
          ],
          "internalType": "struct WideSignatureLogger.PayloadInfo",
          "name": "",
          "type": "tuple"
        }
      ],
      "stateMutability": "view",
      "type": "function"
    },
    {
      "inputs": [
        {
          "components": [
            {
              "internalType": "bytes32",
              "name": "payloadKey",
              "type": "bytes32"
            },
            {
              "internalType": "bytes",
              "name": "signature",
              "type": "bytes"
            }
          ],
          "internalType": "struct WideSignatureLogger.PayloadSignaturePair",
          "name": "payloadPair",
          "type": "tuple"
        }
      ],
      "name": "logPayload",
      "outputs": [],
      "stateMutability": "nonpayable",
      "type": "function"
    },
    {
      "inputs": [
        {
          "components": [
            {
              "internalType": "bytes32",
              "name": "payloadKey",
              "type": "bytes32"
            },
            {
              "internalType": "bytes",
              "name": "signature",
              "type": "bytes"
            }
          ],
          "internalType": "struct WideSignatureLogger.PayloadSignaturePair[]",
          "name": "payloadPairs",
          "type": "tuple[]"
        }
      ],
      "name": "logPayloadBatch",
      "outputs": [],
      "stateMutability": "nonpayable",
      "type": "function"
    },
    {
      "inputs": [],
      "name": "owner",
      "outputs": [
        {
          "internalType": "address",
          "name": "",
          "type": "address"
        }
      ],
      "stateMutability": "view",
      "type": "function"
    },
    {
      "inputs": [
        {
          "internalType": "bytes32",
          "name": "",
          "type": "bytes32"
        }
      ],
      "name": "payloads",
      "outputs": [
        {
          "internalType": "bytes",
          "name": "signature",
          "type": "bytes"
        },
        {
          "internalType": "uint256",
          "name": "timestamp",
          "type": "uint256"
        }
      ],
      "stateMutability": "view",
      "type": "function"
    }
  ],
  "bytecode": "0x608060405234801561001057600080fd5b50336000806101000a81548173ffffffffffffffffffffffffffffffffffffffff021916908373ffffffffffffffffffffffffffffffffffffffff160217905550611037806100606000396000f3fe608060405234801561001057600080fd5b50600436106100575760003560e01c806326b67f3d1461005c57806358722672146100785780636cad7657146100a95780638da5cb5b146100c557806397d25e4e146100e3575b600080fd5b61007660048036038101906100719190610766565b610113565b005b610092600480360381019061008d91906107af565b6102d9565b6040516100a0929190610874565b60405180910390f35b6100c360048036038101906100be919061098a565b610385565b005b6100cd610459565b6040516100da9190610a14565b60405180910390f35b6100fd60048036038101906100f891906107af565b61047d565b60405161010a9190610ac5565b60405180910390f35b60008054906101000a900473ffffffffffffffffffffffffffffffffffffffff1673ffffffffffffffffffffffffffffffffffffffff163373ffffffffffffffffffffffffffffffffffffffff16146101a1576040517f08c379a000000000000000000000000000000000000000000000000000000000815260040161019890610b6a565b60405180910390fd5b6000816000015190506000826020015190506000801b82036101f8576040517f08c379a00000000000000000000000000000000000000000000000000000000081526004016101ef90610bd6565b60405180910390fd5b6000600160008481526020019081526020016000206001015414610251576040517f08c379a000000000000000000000000000000000000000000000000000000000815260040161024890610c42565b60405180910390fd5b60405180604001604052808281526020014281525060016000848152602001908152602001600020600082015181600001908161028e9190610e6e565b5060208201518160010155905050817fc963027d0142d2c1a3623aaa42cc320eacb7b94a4da55dfdeddf12e8a8725094426040516102cc9190610f40565b60405180910390a2505050565b60016020528060005260406000206000915090508060000180546102fc90610c91565b80601f016020809104026020016040519081016040528092919081815260200182805461032890610c91565b80156103755780601f1061034a57610100808354040283529160200191610375565b820191906000526020600020905b81548152906001019060200180831161035857829003601f168201915b5050505050908060010154905082565b60008054906101000a900473ffffffffffffffffffffffffffffffffffffffff1673ffffffffffffffffffffffffffffffffffffffff163373ffffffffffffffffffffffffffffffffffffffff1614610413576040517f08c379a000000000000000000000000000000000000000000000000000000000815260040161040a90610b6a565b60405180910390fd5b60005b81518110156104555761044282828151811061043557610434610f5b565b5b6020026020010151610113565b808061044d90610fb9565b915050610416565b5050565b60008054906101000a900473ffffffffffffffffffffffffffffffffffffffff1681565b610485610546565b600160008381526020019081526020016000206040518060400160405290816000820180546104b390610c91565b80601f01602080910402602001604051908101604052809291908181526020018280546104df90610c91565b801561052c5780601f106105015761010080835404028352916020019161052c565b820191906000526020600020905b81548152906001019060200180831161050f57829003601f168201915b505050505081526020016001820154815250509050919050565b604051806040016040528060608152602001600081525090565b6000604051905090565b600080fd5b600080fd5b600080fd5b6000601f19601f8301169050919050565b7f4e487b7100000000000000000000000000000000000000000000000000000000600052604160045260246000fd5b6105c282610579565b810181811067ffffffffffffffff821117156105e1576105e061058a565b5b80604052505050565b60006105f4610560565b905061060082826105b9565b919050565b600080fd5b6000819050919050565b61061d8161060a565b811461062857600080fd5b50565b60008135905061063a81610614565b92915050565b600080fd5b600080fd5b600067ffffffffffffffff8211156106655761066461058a565b5b61066e82610579565b9050602081019050919050565b82818337600083830152505050565b600061069d6106988461064a565b6105ea565b9050828152602081018484840111156106b9576106b8610645565b5b6106c484828561067b565b509392505050565b600082601f8301126106e1576106e0610640565b5b81356106f184826020860161068a565b91505092915050565b6000604082840312156107105761070f610574565b5b61071a60406105ea565b9050600061072a8482850161062b565b600083015250602082013567ffffffffffffffff81111561074e5761074d610605565b5b61075a848285016106cc565b60208301525092915050565b60006020828403121561077c5761077b61056a565b5b600082013567ffffffffffffffff81111561079a5761079961056f565b5b6107a6848285016106fa565b91505092915050565b6000602082840312156107c5576107c461056a565b5b60006107d38482850161062b565b91505092915050565b600081519050919050565b600082825260208201905092915050565b60005b838110156108165780820151818401526020810190506107fb565b60008484015250505050565b600061082d826107dc565b61083781856107e7565b93506108478185602086016107f8565b61085081610579565b840191505092915050565b6000819050919050565b61086e8161085b565b82525050565b6000604082019050818103600083015261088e8185610822565b905061089d6020830184610865565b9392505050565b600067ffffffffffffffff8211156108bf576108be61058a565b5b602082029050602081019050919050565b600080fd5b60006108e86108e3846108a4565b6105ea565b9050808382526020820190506020840283018581111561090b5761090a6108d0565b5b835b8181101561095257803567ffffffffffffffff8111156109305761092f610640565b5b80860161093d89826106fa565b8552602085019450505060208101905061090d565b5050509392505050565b600082601f83011261097157610970610640565b5b81356109818482602086016108d5565b91505092915050565b6000602082840312156109a05761099f61056a565b5b600082013567ffffffffffffffff8111156109be576109bd61056f565b5b6109ca8482850161095c565b91505092915050565b600073ffffffffffffffffffffffffffffffffffffffff82169050919050565b60006109fe826109d3565b9050919050565b610a0e816109f3565b82525050565b6000602082019050610a296000830184610a05565b92915050565b600082825260208201905092915050565b6000610a4b826107dc565b610a558185610a2f565b9350610a658185602086016107f8565b610a6e81610579565b840191505092915050565b610a828161085b565b82525050565b60006040830160008301518482036000860152610aa58282610a40565b9150506020830151610aba6020860182610a79565b508091505092915050565b60006020820190508181036000830152610adf8184610a88565b905092915050565b600082825260208201905092915050565b7f4f6e6c792074686520636f6e7472616374206f776e65722063616e2063616c6c60008201527f2074686973000000000000000000000000000000000000000000000000000000602082015250565b6000610b54602583610ae7565b9150610b5f82610af8565b604082019050919050565b60006020820190508181036000830152610b8381610b47565b9050919050565b7f496e76616c696420696e70757400000000000000000000000000000000000000600082015250565b6000610bc0600d83610ae7565b9150610bcb82610b8a565b602082019050919050565b60006020820190508181036000830152610bef81610bb3565b9050919050565b7f5061796c6f616420616c7265616479206c6f6767656400000000000000000000600082015250565b6000610c2c601683610ae7565b9150610c3782610bf6565b602082019050919050565b60006020820190508181036000830152610c5b81610c1f565b9050919050565b7f4e487b7100000000000000000000000000000000000000000000000000000000600052602260045260246000fd5b60006002820490506001821680610ca957607f821691505b602082108103610cbc57610cbb610c62565b5b50919050565b60008190508160005260206000209050919050565b60006020601f8301049050919050565b600082821b905092915050565b600060088302610d247fffffffffffffffffffffffffffffffffffffffffffffffffffffffffffffffff82610ce7565b610d2e8683610ce7565b95508019841693508086168417925050509392505050565b6000819050919050565b6000610d6b610d66610d618461085b565b610d46565b61085b565b9050919050565b6000819050919050565b610d8583610d50565b610d99610d9182610d72565b848454610cf4565b825550505050565b600090565b610dae610da1565b610db9818484610d7c565b505050565b5b81811015610ddd57610dd2600082610da6565b600181019050610dbf565b5050565b601f821115610e2257610df381610cc2565b610dfc84610cd7565b81016020851015610e0b578190505b610e1f610e1785610cd7565b830182610dbe565b50505b505050565b600082821c905092915050565b6000610e4560001984600802610e27565b1980831691505092915050565b6000610e5e8383610e34565b9150826002028217905092915050565b610e77826107dc565b67ffffffffffffffff811115610e9057610e8f61058a565b5b610e9a8254610c91565b610ea5828285610de1565b600060209050601f831160018114610ed85760008415610ec6578287015190505b610ed08582610e52565b865550610f38565b601f198416610ee686610cc2565b60005b82811015610f0e57848901518255600182019150602085019450602081019050610ee9565b86831015610f2b5784890151610f27601f891682610e34565b8355505b6001600288020188555050505b505050505050565b6000602082019050610f556000830184610865565b92915050565b7f4e487b7100000000000000000000000000000000000000000000000000000000600052603260045260246000fd5b7f4e487b7100000000000000000000000000000000000000000000000000000000600052601160045260246000fd5b6000610fc48261085b565b91507fffffffffffffffffffffffffffffffffffffffffffffffffffffffffffffffff8203610ff657610ff5610f8a565b5b60018201905091905056fea264697066735822122050bc33e5dbdcd04819a9a4661281293fa22f3fd836cf162332173d0e27c470e464736f6c63430008130033",
  "linkReferences": {},
  "deployedLinkReferences": {}
}